:100000000C9463000C948B000C948B000C944A04A9
:100010000C944A040C944A040C948B000C948B00AE
:100020000C948B000C948B000C948B000C94890323
:100030000C948B000C948B000C948B000C948B0014
:100040000C943F030C948B000C948B000C948B004D
:100050000C948B000C948B000C948B000C948B00F4
:100060000C948B000C948B000000000023002600F1
:10007000290000000000240027002A0000000000E2
:10008000250028002B0004040404040404040202D4
:100090000202020203030303030301020408102007
:1000A0004080010204081020010204081020000012
:1000B0000008000201000003040700000000000027
:1000C00000006006E80611241FBECFEFD8E0DEBFB7
:1000D000CDBF11E0A0E0B1E0E2E4FFE002C0059096
:1000E0000D92A231B107D9F721E0A2E1B1E001C040
:1000F0001D92A73AB207E1F710E0C2E6D0E004C0D3
:100100002197FE010E948907C136D107C9F70E94D5
:10011000C4040C9494070C940000CF92DF92EF92E9
:10012000FF92DC01A03282E0B8070CF03EC0B7FDC0
:1001300006C0A53BB1052CF0A4EBB0E002C0A0E0E6
:10014000B0E08091A50128E830E06901C81AD10823
:1001500087FDD394CC0CDD1CCC0CDD1C0D2C000CCD
:10016000EE08FF088091A60128E532E0281B31093E
:1001700087FD3395220F331F220F331FA901330F41
:10018000660B770B9A01AB012C193D094E095F09EB
:100190000E941C0724EB30E040E050E00E94F20691
:1001A000C20ED31EE41EF51ED6019091A4019C3010
:1001B00098F58091A50148E850E0481B510987FD5A
:1001C0005395440F551F440F551FA417B5078CF0C6
:1001D0008091A60128E532E0281B310987FD33957F
:1001E000220F331F220F331FAD012A173B070CF4D8
:1001F000A90142505109440F551F2FB7F894892F78
:1002000090E0FC01EE0FFF1F8E0F9F1FFC01E058D6
:10021000FE4F528341832FBFFF90EF90DF90CF902E
:100220000895CF92DF92EF92FF920F931F93CF9397
:10023000DF936C017A018B01C0E0D0E0CE15DF05C1
:1002400089F0D8016D918D01D601ED91FC9101905D
:10025000F081E02DC6010995892B11F47E0102C0C1
:100260002196ECCFC701DF91CF911F910F91FF90A5
:10027000EF90DF90CF90089590E0FC01E255FF4FA2
:100280003491FC01E656FF4F2491FC01EA57FF4FE1
:10029000E491EE2309F43BC0332339F1333091F07C
:1002A00038F43130A9F0323001F584B58F7D12C0B9
:1002B000373091F03830A1F03430B9F480918000BB
:1002C0008F7D03C0809180008F77809380000DC068
:1002D00084B58F7784BD09C08091B0008F7703C04B
:1002E0008091B0008F7D8093B000F0E0EE0FFF1F93
:1002F000E458FF4FA591B4918FB7F894EC91611138
:1003000003C020952E2301C02E2B2C938FBF089560
:10031000CF93DF9390E0FC01E656FF4F2491FC0160
:10032000EA57FF4F8491882361F190E0880F991F6D
:10033000FC01EE58FF4FC591D491FC01E458FF4FEA
:10034000A591B491611109C09FB7F8948881209557
:1003500082238883EC912E230BC0623061F49FB717
:10036000F8943881822F809583238883EC912E2BFB
:100370002C939FBF06C08FB7F894E8812E2B28835B
:100380008FBFDF91CF910895CF93DF93EC0161E0B0
:1003900084E00E948801209711F460E004C0CF3F00
:1003A000D10531F461E084E0DF91CF910C943C0100
:1003B000E2EBF0E0E491E330F9F048F4E130B9F039
:1003C000E230A1F584B5806284BDC8BD34C0E73099
:1003D000E9F0E83019F1E43049F58091800080625D
:1003E00080938000D0938B00C0938A0024C084B592
:1003F000806884BDC7BD1FC08091800080688093E5
:100400008000D0938900C093880015C08091B0000F
:1004100080688093B000C093B3000DC08091B0009D
:1004200080628093B000C093B40005C0C038D1058D
:100430000CF0B8CFB2CFDF91CF9108953FB7F894C9
:100440008091590190915A01A0915B01B0915C019A
:1004500026B5A89B05C02F3F19F00196A11DB11D1F
:100460003FBFBA2FA92F982F8827820F911DA11D5A
:10047000B11DBC01CD0142E0660F771F881F991F97
:100480004A95D1F708958F929F92AF92BF92CF92E3
:10049000DF92EF92FF926B017C010E941E024B01E2
:1004A0005C01C114D104E104F104F1F00E941E02C8
:1004B000DC01CB0188199909AA09BB09883E934040
:1004C000A105B10570F321E0C21AD108E108F108D5
:1004D00088EE880E83E0981EA11CB11CC114D104C3
:1004E000E104F10419F7DDCFFF90EF90DF90CF909A
:1004F000BF90AF909F908F90089520915F013091B1
:1005000060012817390771F490915D0180915E01B7
:10051000981741F0E0915D01F0E0EE5EFE4F8081C2
:1005200090E008958FEF9FEF089508951F93CF9364
:10053000DF93DC015C962D913C915D97211531058F
:1005400039F481E090E013969C938E9312973DC00E
:100550005196ED91FC91529750969C915097892F0E
:1005600080951FB75E964C915E9741FB772770F997
:1005700041FD6095F8944081772311F0492B01C02B
:1005800048234083E9012197F1F748E0508160FF5B
:1005900002C0592B01C058235083E9012197F1F77C
:1005A0006695415099F7772321F0908189238083C4
:1005B00003C08081982B90831FBF5C968D919C9186
:1005C0005D970197F1F721E030E0C901DF91CF910C
:1005D0001F91089520915F0130916001281739071C
:1005E00071F480915E0120915D0190E0805C9F4FED
:1005F000821B910960E470E00E946107089580E029
:1006000090E0089520915F0130916001281739072B
:10061000B9F490915D0180915E01981789F0E091A5
:100620005D01F0E0EE5EFE4F808120915D0130E0E3
:100630002F5F3F4F2F73332720935D0190E0089584
:100640008FEF9FEF0895E0915F01F0916001E8174F
:10065000F90769F4A389B4899C91858980958923D8
:100660008C931092600110925F0181E0089580E008
:100670000895089580E090E008950E948F071F92EA
:100680000F920FB60F9211242F933F938F939F9346
:10069000AF93BF938091550190915601A09157015E
:1006A000B09158013091540123E0230F2D3720F4ED
:1006B0000196A11DB11D05C026E8230F0296A11DBC
:1006C000B11D209354018093550190935601A0933E
:1006D0005701B09358018091590190915A01A0910E
:1006E0005B01B0915C010196A11DB11D8093590180
:1006F00090935A01A0935B01B0935C01BF91AF91BD
:100700009F918F913F912F910F900FBE0F901F904F
:1007100018951F920F920FB60F9211242F933F93AB
:100720004F935F936F937F938F939F93AF93BF93F9
:10073000EF93FF938091530187FF05C010928500CE
:10074000109284001BC020915301022E000C330B29
:100750008091520190E02817390784F48091530169
:10076000082E000C990BFC01EE0FFF1F8E0F9F1F30
:10077000FC01E058FE4F808186FD15C08091530139
:100780008F5F8093530120915301022E000C330B95
:100790008091520190E028173907C4F480915301E9
:1007A0008C3064F113C080915301082E000C990B1A
:1007B000FC01EE0FFF1F8E0F9F1FFC01E058FE4F44
:1007C000808160E08F730E943C01D8CF80918400CB
:1007D00090918500049680349C4918F480E49CE94B
:1007E00005C08091840090918500049690938900C3
:1007F000809388008FEF809353013BC02091840049
:100800003091850080915301082E000C990BFC015A
:10081000EE0FFF1F8E0F9F1FFC01E058FE4F8181DE
:100820009281820F931F909389008093880080911A
:100830005301082E000C990BFC01EE0FFF1F8E0FC9
:100840009F1FFC01E058FE4F808186FF12C08091FF
:100850005301082E000C990BFC01EE0FFF1F8E0FA9
:100860009F1FFC01E058FE4F808161E08F730E9462
:100870003C01FF91EF91BF91AF919F918F917F913B
:100880006F915F914F913F912F910F900FBE0F90FD
:100890001F9018951F920F920FB60F9211242F934D
:1008A0003F934F935F936F937F938F939F93AF93F8
:1008B000BF93EF93FF93E0915F01F0916001309758
:1008C00009F451C0968DA685B785858591FF04C032
:1008D0009C91892329F447C09C91892309F043C046
:1008E000A389B4899C918589809589238C93868975
:1008F00097890197F1F7608D718DA685B78555852C
:1009000038E020E0CB010197F1F7822F90E0959538
:100910008795282F4C91452309F02068315091F795
:10092000868D81FD209580915E0190E001968F7308
:10093000992730915D01381749F0A0915E01B0E030
:10094000AE5EBE4F2C9380935E0103C0868D8160A6
:10095000868F828D938D0197F1F7A389B4899C913D
:100960008589892B8C93FF91EF91BF91AF919F91D6
:100970008F917F916F915F914F913F912F910F9048
:100980000FBE0F901F901895789484B5826084BD37
:1009900084B5816084BD85B5826085BD85B5816083
:1009A00085BD80916E00816080936E001092810001
:1009B00080918100826080938100809181008160BC
:1009C000809381008091800081608093800080917D
:1009D000B10084608093B1008091B0008160809309
:1009E000B00080917A00846080937A0080917A00D0
:1009F000826080937A0080917A00816080937A008F
:100A000080917A00806880937A001092C1001092E1
:100A10007C0110927B0110927A0110927901109260
:100A20007801109277018DE991E090937E01809397
:100A30007D0190916D01963108F057C02DEB30E0AB
:100A400030937801209377012BE931E030937A01DC
:100A5000209379012CE231E030937C0120937B01DB
:100A600020916800983050F031E09E3008F430E07A
:100A700081E001C0880F3A95EAF701C084E0822B3B
:100A800080936800983038F09E3040F0963148F0FE
:100A900020E030E008C02DE630E005C02BE630E075
:100AA00002C02CE630E03093750120937401983039
:100AB00030F481E001C0880F9A95EAF70EC0292F23
:100AC00030E09E3018F42850310902C02E50310910
:100AD00081E001C0880F2A95EAF780937601809122
:100AE0007D0190917E010197F1F780917B019091BA
:100AF0007C01892B21F180915F019091600121E0BF
:100B000081369207E1F0009711F00E942303809153
:100B10007F018E7F80937F0110925E0110925D01B4
:100B200081E691E09093600180935F01E091740110
:100B3000F0917501908180917601892B808361E02D
:100B400084E00E94880161E086E00E94880161E003
:100B500085E00E9488018091A4018C3008F051C08A
:100B600061E087E00E9488018091A401E82FF0E015
:100B70009F01220F331FE20FF31FE058FE4F9081B9
:100B8000907C976090831092A5011092A6016CE072
:100B90000E9455079CE0899FB001112440E050E07D
:100BA0009A01260F371FF901EE0FFF1F2E0F3F1F6F
:100BB000F901E058FE4F908196FD16C04F5F5F4FE0
:100BC0004C30510569F781110FC01092800082E00E
:100BD000809381001092850010928400B19A8091D8
:100BE0006F00826080936F00E091A401F0E0CF017C
:100BF000880F991FE80FF91FE058FE4F808180642D
:100C00008083C0E0D0E086E990E00E94C40181E6E4
:100C100091E00E94EA02892B09F44CC081E691E040
:100C20000E9402038C3679F488E790E00E94C401A8
:100C300061E086E00E943C0160E085E00E943C01AA
:100C40008CE390E010C0823789F488E790E00E943E
:100C5000C40161E086E00E943C0160E085E00E9402
:100C60003C018EE690E00E948D001EC0863651F455
:100C700080E590E00E948D0061E086E00E943C01EA
:100C800060E00FC0823631F480E590E00E948D0074
:100C900060E003C0833771F461E086E00E943C01AC
:100CA00061E085E00E943C0168EE73E080E090E046
:100CB0000E944302209709F4A6CF0E940000A3CF10
:100CC000109264011092630188EE93E0A0E0B0E01E
:100CD0008093650190936601A0936701B0936801CA
:100CE00084E091E090936201809361011092780119
:100CF0001092770110927A011092790110927C0182
:100D000010927B0110927E0110927D0160917F0113
:100D10006E7F6D7F60937F016695617081E06827CB
:100D200083E00E943C0161E083E00E948801EDE9DC
:100D3000F0E0E491E0937101E9E8F0E0E491F0E0A3
:100D4000EE0FFF1FE458FF4F85919491909373012C
:100D50008093720160E082E00E94880180917F01AF
:100D600081FD04C061E082E00E943C0182E080934A
:100D70006D01ECE9F0E0E491E0936E01E8E8F0E069
:100D8000E491F0E0EE0FFF1FE859FF4F8591949139
:100D90009093700180936F01809152018C30A0F488
:100DA00091E0980F909352018093A40190E0FC0190
:100DB000EE0FFF1F8E0F9F1FFC01E058FE4F88EBC8
:100DC0009BE09283818308958FEF8093A40108951F
:100DD00084E091E0909362018093610181E691E06B
:100DE0000C942303052E97FB1EF400940E94090720
:100DF00057FD07D00E94240707FC03D04EF40C9443
:100E0000090750954095309521953F4F4F4F5F4FC3
:100E1000089590958095709561957F4F8F4F9F4F66
:100E200008950E944607A59F900DB49F900DA49F22
:100E3000800D911D11240895B7FF0C9411070E9495
:100E40001107821B930B0895A1E21A2EAA1BBB1B4C
:100E5000FD010DC0AA1FBB1FEE1FFF1FA217B30786
:100E6000E407F50720F0A21BB30BE40BF50B661F9C
:100E7000771F881F991F1A9469F760957095809560
:100E800090959B01AC01BD01CF010895A29FB001D7
:100E9000B39FC001A39F700D811D1124911DB29FAE
:100EA000700D811D1124911D0895991B79E004C0D6
:100EB000991F961708F0961B881F7A95C9F7809599
:100EC000089597FB072E16F4009407D077FD09D0FC
:100ED0000E94750707FC05D03EF4909581959F4FC1
:100EE0000895709561957F4F0895AA1BBB1B51E132
:100EF00007C0AA1FBB1FA617B70710F0A61BB70B8A
:100F0000881F991F5A95A9F780959095BC01CD012E
:100F10000895EE0FFF1F0590F491E02D099481E0F4
:100F200090E0F8940C94940710E0C2E6D0E004C07E
:100F3000FE010E9489072196C336D107C9F7F894AC
:020F4000FFCFE1
:100F420000000000960211013A039502EA02020330
:020F52007D021E
:107E0000112484B714BE81FFF0D085E080938100F7
:107E100082E08093C00088E18093C10086E0809377
:107E2000C20080E18093C4008EE0C9D0259A86E02C
:107E300020E33CEF91E0309385002093840096BBD3
:107E4000B09BFECF1D9AA8958150A9F7CC24DD24C4
:107E500088248394B5E0AB2EA1E19A2EF3E0BF2EE7
:107E6000A2D0813461F49FD0082FAFD0023811F036
:107E7000013811F484E001C083E08DD089C08234E0
:107E800011F484E103C0853419F485E0A6D080C0E4
:107E9000853579F488D0E82EFF2485D0082F10E0AE
:107EA000102F00270E291F29000F111F8ED06801E7
:107EB0006FC0863521F484E090D080E0DECF843638
:107EC00009F040C070D06FD0082F6DD080E0C81688
:107ED00080E7D80618F4F601B7BEE895C0E0D1E017
:107EE00062D089930C17E1F7F0E0CF16F0E7DF06D8
:107EF00018F0F601B7BEE89568D007B600FCFDCFD4
:107F0000A601A0E0B1E02C9130E011968C91119780
:107F100090E0982F8827822B932B1296FA010C0160
:107F200087BEE89511244E5F5F4FF1E0A038BF0790
:107F300051F7F601A7BEE89507B600FCFDCF97BE46
:107F4000E89526C08437B1F42ED02DD0F82E2BD052
:107F50003CD0F601EF2C8F010F5F1F4F84911BD097
:107F6000EA94F801C1F70894C11CD11CFA94CF0C13
:107F7000D11C0EC0853739F428D08EE10CD085E9AC
:107F80000AD08FE07ACF813511F488E018D01DD067
:107F900080E101D065CF982F8091C00085FFFCCF94
:107FA0009093C60008958091C00087FFFCCF809118
:107FB000C00084FD01C0A8958091C6000895E0E648
:107FC000F0E098E1908380830895EDDF803219F02E
:107FD00088E0F5DFFFCF84E1DECF1F93182FE3DFCA
:107FE0001150E9F7F2DF1F91089580E0E8DFEE27F6
:047FF000FF270994CA
:027FFE00040479
:0400000300007E007B
:00000001FF