:100000000C9463000C948B000C948B000C949F0553
:100010000C949F050C949F050C948B000C948B0002
:100020000C948B000C948B000C948B000C94DE04CD
:100030000C948B000C948B000C948B000C948B0014
:100040000C9494040C948B000C9462040C943C0467
:100050000C948B000C948B000C948B000C948B00F4
:100060000C948B000C948B000000000024002700EF
:100070002A0000000008000201000003040700003D
:1000800000000000000000000000250028002B00F8
:1000900000000000230026002900040404040404D6
:1000A0000404020202020202030303030303010227
:1000B00004081020408001020408102001020408F6
:1000C00010201906CC0811241FBECFEFD8E0DEBFE8
:1000D000CDBF11E0A0E0B1E0EAE0F3E102C005909D
:1000E0000D92A033B107D9F722E0A0E3B1E001C03F
:1000F0001D92A236B207E1F710E0C2E6D0E004C0DC
:100100002197FE010E946D09C136D107C9F70E94EF
:10011000DF060C9478090C940000CF92DF92EF92E6
:10012000FF92DC01A03282E0B8070CF03EC0B7FDC0
:1001300006C0A53BB1052CF0A4EBB0E002C0A0E0E6
:10014000B0E08091410228E830E06901C81AD10886
:1001500087FDD394CC0CDD1CCC0CDD1C0D2C000CCD
:10016000EE08FF088091420228E532E0281B3109A1
:1001700087FD3395220F331F220F331FA901330F41
:10018000660B770B9A01AB012C193D094E095F09EB
:100190000E94000924EB30E040E050E00E94D608C5
:1001A000C20ED31EE41EF51ED601909140029C3073
:1001B00098F58091410248E850E0481B510987FDBD
:1001C0005395440F551F440F551FA417B5078CF0C6
:1001D0008091420228E532E0281B310987FD3395E2
:1001E000220F331F220F331FAD012A173B070CF4D8
:1001F000A90142505109440F551F2FB7F894892F78
:1002000090E0FC01EE0FFF1F8E0F9F1FFC01E55ECB
:10021000FD4F528341832FBFFF90EF90DF90CF902F
:100220000895CF92DF92EF92FF920F931F93CF9397
:10023000DF936C017A018B01C0E0D0E0CE15DF05C1
:1002400089F0D8016D918D01D601ED91FC9101905D
:10025000F081E02DC6010995892B11F47E0102C0C1
:100260002196ECCFC701DF91CF911F910F91FF90A5
:10027000EF90DF90CF900895FC01538D448D252F92
:1002800030E0842F90E0821B930B541710F0CF9630
:10029000089501970895FC01918D828D981761F062
:1002A000828DDF01A80FB11D5D968C91928D9F5FAD
:1002B0009F73928F90E008958FEF9FEF0895FC0158
:1002C000918D828D981731F0828DE80FF11D858D0B
:1002D00090E008958FEF9FEF0895FC01918D228D9E
:1002E000892F90E0805C9F4F821B91098F73992723
:1002F00008958EE791E00E946D0121E0892B09F4B9
:1003000020E0822F0895FC01848DDF01A80FB11D2C
:10031000A35ABF4F2C91848D90E001968F7399273B
:10032000848FA689B7892C93A089B1898C91806428
:100330008C93938D848D981306C00288F389E02DE9
:1003400080818F7D80830895EF92FF920F931F939A
:10035000CF93DF93EC0181E0888F9B8D8C8D981378
:1003600005C0E889F989808185FD24C0F62E0B8DB2
:1003700010E00F5F1F4F0F731127E02E8C8DE812D6
:100380000CC00FB607FCFACFE889F989808185FF98
:10039000F5CFCE010E948301F1CF8B8DFE01E80FD6
:1003A000F11DE35AFF4FF0820B8FEA89FB898081B0
:1003B000806207C0EE89FF896083E889F9898081BE
:1003C0008064808381E090E0DF91CF911F910F9155
:1003D000FF90EF900895CF93DF93EC01888D8823F1
:1003E000C9F0EA89FB89808185FD05C0A889B989A2
:1003F0008C9186FD0FC00FB607FCF5CF808185FF7D
:10040000F2CFA889B9898C9185FFEDCFCE010E94EA
:100410008301E7CFDF91CF91089580E090E0892BB1
:1004200029F00E94790181110C940000089590E058
:10043000FC01EE58FF4F3491FC01E255FF4F24912F
:10044000FC01E656FF4FE491EE2309F43BC0332351
:1004500039F1333091F038F43130A9F0323001F510
:1004600084B58F7D12C0373091F03830A1F0343030
:10047000B9F4809180008F7D03C0809180008F77D8
:10048000809380000DC084B58F7784BD09C08091B2
:10049000B0008F7703C08091B0008F7D8093B00053
:1004A000F0E0EE0FFF1FEA57FF4FA591B4918FB711
:1004B000F894EC91611103C020952E2301C02E2BDE
:1004C0002C938FBF0895CF93DF9390E0FC01E2550A
:1004D000FF4F2491FC01E656FF4F8491882361F180
:1004E00090E0880F991FFC01E859FF4FC591D49106
:1004F000FC01EA57FF4FA591B491611109C09FB764
:10050000F8948881209582238883EC912E230BC058
:10051000623061F49FB7F8943881822F80958323ED
:100520008883EC912E2B2C939FBF06C08FB7F89435
:10053000E8812E2B28838FBFDF91CF910895CF9331
:10054000DF93EC0161E084E00E946302209711F4E4
:1005500060E004C0CF3FD10531F461E084E0DF9179
:10056000CF910C941702E6E7F0E0E491E330F9F064
:1005700048F4E130B9F0E230A1F584B5806284BD81
:10058000C8BD34C0E730E9F0E83019F1E43049F58E
:1005900080918000806280938000D0938B00C09314
:1005A0008A0024C084B5806884BDC7BD1FC0809107
:1005B0008000806880938000D0938900C093880079
:1005C00015C08091B00080688093B000C093B300E4
:1005D0000DC08091B00080628093B000C093B400E1
:1005E00005C0C038D1050CF0B8CFB2CFDF91CF91A4
:1005F00008953FB7F8948091760190917701A0918A
:100600007801B091790126B5A89B05C02F3F19F05C
:100610000196A11DB11D3FBFBA2FA92F982F882782
:10062000820F911DA11DB11DBC01CD0142E0660FDD
:10063000771F881F991F4A95D1F708958F929F922F
:10064000AF92BF92CF92DF92EF92FF926B017C014B
:100650000E94F9024B015C01C114D104E104F104D0
:10066000F1F00E94F902DC01CB0188199909AA096D
:10067000BB09883E9340A105B10570F321E0C21A81
:10068000D108E108F10888EE880E83E0981EA11CCD
:10069000B11CC114D104E104F10419F7DDCFFF90BE
:1006A000EF90DF90CF90BF90AF909F908F90089584
:1006B00020917C0130917D012817390771F49091C8
:1006C0007A0180917B01981741F0E0917A01F0E086
:1006D000E05DFE4F808190E008958FEF9FEF0895D9
:1006E00008951F93CF93DF93DC015C962D913C918D
:1006F0005D972115310539F481E090E013969C93C4
:100700008E9312973DC05196ED91FC915297509661
:100710009C915097892F80951FB75E964C915E975C
:1007200041FB772770F941FD6095F894408177236C
:1007300011F0492B01C048234083E9012197F1F7CB
:1007400048E0508160FF02C0592B01C058235083FC
:10075000E9012197F1F76695415099F7772321F048
:1007600090818923808303C08081982B90831FBF51
:100770005C968D919C915D970197F1F721E030E0B7
:10078000C901DF91CF911F91089520917C01309193
:100790007D012817390771F480917B0120917A013E
:1007A00090E0805C9F4F821B910960E470E00E94A2
:1007B0004509089580E090E0089520917C013091F2
:1007C0007D0128173907B9F490917A0180917B0156
:1007D000981789F0E0917A01F0E0E05DFE4F8081AA
:1007E00020917A0130E02F5F3F4F2F733327209302
:1007F0007A0190E008958FEF9FEF0895E0917C01DA
:10080000F0917D01E817F90769F4A389B4899C91F7
:100810008589809589238C9310927D0110927C01AB
:1008200081E0089580E00895089580E090E00895C3
:10083000CF93DF93009779F0FC0101900020E9F756
:100840003197AF01481B590BBC018EE791E00E9424
:100850001101EC0102C0C0E0D0E042E050E064E2EF
:1008600071E08EE791E00E9411018C0F9D1FDF91D6
:10087000CF9108950E9473091F920F920FB60F92A5
:1008800011242F933F934F935F936F937F938F9395
:100890009F93AF93BF93EF93FF938EE791E00E94F6
:1008A0008301FF91EF91BF91AF919F918F917F91C4
:1008B0006F915F914F913F912F910F900FBE0F90CD
:1008C0001F9018951F920F920FB60F9211242F931D
:1008D0008F939F93EF93FF93E0918E01F0918F019F
:1008E0008081E0919401F091950182FD12C0908188
:1008F000809197018F5F8F7320919801821751F03B
:10090000E0919701F0E0E258FE4F958F80939701B8
:1009100001C08081FF91EF919F918F912F910F9056
:100920000FBE0F901F9018951F920F920FB60F9247
:1009300011242F933F938F939F93AF93BF938091F5
:10094000720190917301A0917401B0917501309181
:10095000710123E0230F2D3720F40196A11DB11D55
:1009600005C026E8230F0296A11DB11D2093710139
:100970008093720190937301A0937401B0937501F9
:100980008091760190917701A0917801B0917901E1
:100990000196A11DB11D8093760190937701A093DC
:1009A0007801B0937901BF91AF919F918F913F9161
:1009B0002F910F900FBE0F901F9018951F920F92BE
:1009C0000FB60F9211242F933F934F935F936F9322
:1009D0007F938F939F93AF93BF93EF93FF938091F8
:1009E000700187FF05C010928500109284001BC023
:1009F00020917001022E000C330B80913F0290E099
:100A00002817390784F480917001082E000C990B87
:100A1000FC01EE0FFF1F8E0F9F1FFC01E55EFD4FD7
:100A2000808186FD15C0809170018F5F8093700179
:100A300020917001022E000C330B80913F0290E058
:100A400028173907C4F4809170018C3064F113C009
:100A500080917001082E000C990BFC01EE0FFF1F16
:100A60008E0F9F1FFC01E55EFD4F808160E08F735C
:100A70000E941702D8CF809184009091850004963F
:100A800080349C4918F480E49CE905C0809184007E
:100A900090918500049690938900809388008FEF51
:100AA000809370013BC0209184003091850080913B
:100AB0007001082E000C990BFC01EE0FFF1F8E0F2A
:100AC0009F1FFC01E55EFD4F81819281820F931F84
:100AD000909389008093880080917001082E000C0B
:100AE000990BFC01EE0FFF1F8E0F9F1FFC01E55EAF
:100AF000FD4F808186FF12C080917001082E000C8E
:100B0000990BFC01EE0FFF1F8E0F9F1FFC01E55E8E
:100B1000FD4F808161E08F730E941702FF91EF917A
:100B2000BF91AF919F918F917F916F915F914F9105
:100B30003F912F910F900FBE0F901F9018951F920D
:100B40000F920FB60F9211242F933F934F935F9301
:100B50006F937F938F939F93AF93BF93EF93FF9385
:100B6000E0917C01F0917D01309709F451C0968DA0
:100B7000A685B785858591FF04C09C91892329F4BA
:100B800047C09C91892309F043C0A389B4899C91F3
:100B90008589809589238C93868997890197F1F7B8
:100BA000608D718DA685B785558538E020E0CB0135
:100BB0000197F1F7822F90E095958795282F4C911A
:100BC000452309F02068315091F7868D81FD2095ED
:100BD00080917B0190E001968F73992730917A0183
:100BE000381749F0A0917B01B0E0A05DBE4F2C9377
:100BF00080937B0103C0868D8160868F828D938D6B
:100C00000197F1F7A389B4899C918589892B8C93ED
:100C1000FF91EF91BF91AF919F918F917F916F91D4
:100C20005F914F913F912F910F900FBE0F901F90AA
:100C30001895109281011092800188EE93E0A0E057
:100C4000B0E08093820190938301A0938401B093DC
:100C5000850124E031E030937F0120937E0125EC73
:100C600030E030938B0120938A0124EC30E0309304
:100C70008D0120938C0120EC30E030938F01209384
:100C80008E0121EC30E0309391012093900122EC11
:100C900030E0309393012093920126EC30E03093C2
:100CA000950120939401109297011092980110924F
:100CB000990110929A011092460210924502809377
:100CC000470290934802A0934902B0934A0286E1FA
:100CD00091E0909344028093430210925A02109242
:100CE000590210925C0210925B0210925E02109206
:100CF0005D021092600210925F02609161026E7F4D
:100D00006D7F609361026695617081E0682783E082
:100D10000E94170261E083E00E946302E1EBF0E0D1
:100D2000E491E0935302EDE9F0E0E491F0E0EE0F9E
:100D3000FF1FEA57FF4F859194919093550280933E
:100D4000540260E082E00E9463028091610281FDB2
:100D500004C061E082E00E94170282E080934F02AB
:100D6000E0EBF0E0E491E0935002ECE9F0E0E49194
:100D7000F0E0EE0FFF1FE057FF4F859194919093A5
:100D800052028093510280913F028C30A0F491E096
:100D9000980F90933F028093400290E0FC01EE0F89
:100DA000FF1F8E0F9F1FFC01E55EFD4F88EB9BE050
:100DB0009283818308958FEF809340020895789401
:100DC00084B5826084BD84B5816084BD85B5826050
:100DD00085BD85B5816085BD80916E008160809301
:100DE0006E0010928100809181008260809381006A
:100DF000809181008160809381008091800081607A
:100E0000809380008091B10084608093B1008091D4
:100E1000B00081608093B00080917A0084608093FC
:100E20007A0080917A00826080937A0080917A00C3
:100E3000816080937A0080917A00806880937A0044
:100E40001092C10061E084E00E94630261E086E0EC
:100E50000E94630261E085E00E946302809140028B
:100E60008C3008F051C061E087E00E9463028091FD
:100E70004002E82FF0E09F01220F331FE20FF31F23
:100E8000E55EFD4F9081907C9760908310924102C7
:100E9000109242026CE00E9439092CE0829FB0015E
:100EA000112440E050E09A01260F371FF901EE0FA0
:100EB000FF1F2E0F3F1FF901E55EFD4F908196FD4C
:100EC00016C04F5F5F4F4C30510569F781110FC05D
:100ED0001092800082E08093810010928500109231
:100EE0008400B19A80916F00826080936F00E091DE
:100EF0004002F0E0CF01880F991FE80FF91FE55E6F
:100F0000FD4F80818064808310925E0210925D02AA
:100F100010925C0210925B0210925A0210925902D7
:100F20008DE991E09093600280935F0290914F026F
:100F3000963108F057C02DEB30E030935A022093E1
:100F400059022BE931E030935C0220935B022CE2E2
:100F500031E030935E0220935D022091680098306A
:100F600050F031E09E3008F430E081E001C0880F9D
:100F70003A95EAF701C084E0822B809368009830AC
:100F800038F09E3040F0963148F020E030E008C064
:100F90002DE630E005C02BE630E002C02CE630E064
:100FA0003093570220935602983030F481E001C00C
:100FB000880F9A95EAF70EC0292F30E09E3018F47A
:100FC0002850310902C02E50310981E001C0880F3C
:100FD0002A95EAF78093580280915F02909160020F
:100FE0000197F1F780915D0290915E02892B21F1CA
:100FF00080917C0190917D0122E083349207E1F0A1
:10100000009711F00E94FE03809161028E7F809311
:10101000610210927B0110927A0183E492E0909336
:101020007D0180937C01E0915602F09157029081FE
:1010300080915802892B8083E0918E01F0918F017D
:1010400082E08083E0918A01F0918B011082E0912F
:101050008C01F0918D018FEC808310929601E091CC
:101060009201F091930186E08083E0919001F091EC
:101070009101808180618083E0919001F0919101E4
:10108000808188608083E0919001F091910180815E
:1010900080688083E0919001F091910180818F7D43
:1010A00080838FEF90E00E949F0287E291E00E9490
:1010B00018048AE590E00E948D0061E086E00E94BD
:1010C000170260E085E00E94170268EE73E080E09E
:1010D00090E00E941E0389E291E00E9418048AE5D4
:1010E00090E00E948D0060E086E00E94170261E0BF
:1010F00085E00E94170268EE73E080E090E00E94B5
:101100001E038BE291E00E9418048AEA90E00E949C
:101110009F0261E086E00E94170260E085E00E9485
:1011200017028EE190E00E948D0068EE73E080E08F
:1011300090E00E941E038AE590E00E948D0064EF1B
:1011400071E080E090E00E941E038DE291E00E9439
:1011500018048AEA90E00E949F0261E086E00E9403
:10116000170260E085E00E94170286E990E00E9485
:101170008D0068EE73E080E090E00E941E038BE437
:1011800090E00E948D0064EF71E080E090E00E94AA
:101190001E030E940D0285CF86E191E090934402E8
:1011A0008093430283E492E00C94FE03052E97FBA8
:1011B0001EF400940E94ED0857FD07D00E94080914
:1011C00007FC03D04EF40C94ED08509540953095F3
:1011D00021953F4F4F4F5F4F0895909580957095A3
:1011E00061957F4F8F4F9F4F08950E942A09A59FB9
:1011F000900DB49F900DA49F800D911D1124089512
:10120000B7FF0C94F5080E94F508821B930B089514
:10121000A1E21A2EAA1BBB1BFD010DC0AA1FBB1FFA
:10122000EE1FFF1FA217B307E407F50720F0A21B6C
:10123000B30BE40BF50B661F771F881F991F1A94D9
:1012400069F760957095809590959B01AC01BD0103
:10125000CF010895A29FB001B39FC001A39F700D5D
:10126000811D1124911DB29F700D811D1124911DAE
:101270000895991B79E004C0991F961708F0961BF2
:10128000881F7A95C9F78095089597FB072E16F465
:10129000009407D077FD09D00E94590907FC05D0BA
:1012A0003EF4909581959F4F0895709561957F4F7D
:1012B0000895AA1BBB1B51E107C0AA1FBB1FA6179D
:1012C000B70710F0A61BB70B881F991F5A95A9F7EF
:1012D00080959095BC01CD010895EE0FFF1F0590FC
:1012E000F491E02D099481E090E0F8940C94780951
:1012F00010E0C2E6D0E004C0FE010E946D09219614
:0A130000C336D107C9F7F894FFCFF8
:10130A0000000000A40111013C01EB016D014B0139
:10131A005F01000000007103110115047003C50389
:10132A00DD0358030D0A00660062006C00720000BB
:107E0000112484B714BE81FFF0D085E080938100F7
:107E100082E08093C00088E18093C10086E0809377
:107E2000C20080E18093C4008EE0C9D0259A86E02C
:107E300020E33CEF91E0309385002093840096BBD3
:107E4000B09BFECF1D9AA8958150A9F7CC24DD24C4
:107E500088248394B5E0AB2EA1E19A2EF3E0BF2EE7
:107E6000A2D0813461F49FD0082FAFD0023811F036
:107E7000013811F484E001C083E08DD089C08234E0
:107E800011F484E103C0853419F485E0A6D080C0E4
:107E9000853579F488D0E82EFF2485D0082F10E0AE
:107EA000102F00270E291F29000F111F8ED06801E7
:107EB0006FC0863521F484E090D080E0DECF843638
:107EC00009F040C070D06FD0082F6DD080E0C81688
:107ED00080E7D80618F4F601B7BEE895C0E0D1E017
:107EE00062D089930C17E1F7F0E0CF16F0E7DF06D8
:107EF00018F0F601B7BEE89568D007B600FCFDCFD4
:107F0000A601A0E0B1E02C9130E011968C91119780
:107F100090E0982F8827822B932B1296FA010C0160
:107F200087BEE89511244E5F5F4FF1E0A038BF0790
:107F300051F7F601A7BEE89507B600FCFDCF97BE46
:107F4000E89526C08437B1F42ED02DD0F82E2BD052
:107F50003CD0F601EF2C8F010F5F1F4F84911BD097
:107F6000EA94F801C1F70894C11CD11CFA94CF0C13
:107F7000D11C0EC0853739F428D08EE10CD085E9AC
:107F80000AD08FE07ACF813511F488E018D01DD067
:107F900080E101D065CF982F8091C00085FFFCCF94
:107FA0009093C60008958091C00087FFFCCF809118
:107FB000C00084FD01C0A8958091C6000895E0E648
:107FC000F0E098E1908380830895EDDF803219F02E
:107FD00088E0F5DFFFCF84E1DECF1F93182FE3DFCA
:107FE0001150E9F7F2DF1F91089580E0E8DFEE27F6
:047FF000FF270994CA
:027FFE00040479
:0400000300007E007B
:00000001FF